{
  "_format": "hh-sol-artifact-1",
  "contractName": "ProposalContract",
  "sourceName": "contracts/Proposal.sol",
  "abi": [
    {
      "inputs": [],
      "stateMutability": "nonpayable",
      "type": "constructor"
    },
    {
      "inputs": [],
      "name": "AlreadyVoted",
      "type": "error"
    },
    {
      "inputs": [],
      "name": "AmountMustBeGreaterThanZero",
      "type": "error"
    },
    {
      "inputs": [],
      "name": "InsufficientBalance",
      "type": "error"
    },
    {
      "inputs": [],
      "name": "InvalidProposalID",
      "type": "error"
    },
    {
      "inputs": [],
      "name": "MinVotesToPassMustBeGreaterThanZero",
      "type": "error"
    },
    {
      "inputs": [],
      "name": "NotEnoughVotesToPass",
      "type": "error"
    },
    {
      "inputs": [],
      "name": "ProposalAlreadyExecuted",
      "type": "error"
    },
    {
      "inputs": [],
      "name": "VotingPeriodHasEnded",
      "type": "error"
    },
    {
      "inputs": [],
      "name": "VotingPeriodMustBeGreaterThanZero",
      "type": "error"
    },
    {
      "inputs": [],
      "name": "VotingPeriodNotEnded",
      "type": "error"
    },
    {
      "anonymous": false,
      "inputs": [
        {
          "indexed": true,
          "internalType": "uint256",
          "name": "proposalId",
          "type": "uint256"
        },
        {
          "indexed": false,
          "internalType": "string",
          "name": "description",
          "type": "string"
        },
        {
          "indexed": false,
          "internalType": "address",
          "name": "recipient",
          "type": "address"
        },
        {
          "indexed": false,
          "internalType": "uint256",
          "name": "amount",
          "type": "uint256"
        },
        {
          "indexed": false,
          "internalType": "uint256",
          "name": "votingDeadline",
          "type": "uint256"
        },
        {
          "indexed": false,
          "internalType": "uint256",
          "name": "minVotesToPass",
          "type": "uint256"
        }
      ],
      "name": "ProposalCreated",
      "type": "event"
    },
    {
      "anonymous": false,
      "inputs": [
        {
          "indexed": true,
          "internalType": "uint256",
          "name": "proposalId",
          "type": "uint256"
        }
      ],
      "name": "ProposalExecuted",
      "type": "event"
    },
    {
      "anonymous": false,
      "inputs": [
        {
          "indexed": true,
          "internalType": "uint256",
          "name": "proposalId",
          "type": "uint256"
        },
        {
          "indexed": false,
          "internalType": "address",
          "name": "voter",
          "type": "address"
        }
      ],
      "name": "Voted",
      "type": "event"
    },
    {
      "inputs": [
        {
          "internalType": "string",
          "name": "_description",
          "type": "string"
        },
        {
          "internalType": "address payable",
          "name": "_recipient",
          "type": "address"
        },
        {
          "internalType": "uint256",
          "name": "_amount",
          "type": "uint256"
        },
        {
          "internalType": "uint256",
          "name": "_votingPeriod",
          "type": "uint256"
        },
        {
          "internalType": "uint256",
          "name": "_minVotesToPass",
          "type": "uint256"
        }
      ],
      "name": "createProposal",
      "outputs": [],
      "stateMutability": "nonpayable",
      "type": "function"
    },
    {
      "inputs": [
        {
          "internalType": "uint256",
          "name": "_proposalId",
          "type": "uint256"
        }
      ],
      "name": "executeProposal",
      "outputs": [],
      "stateMutability": "nonpayable",
      "type": "function"
    },
    {
      "inputs": [
        {
          "internalType": "address",
          "name": "",
          "type": "address"
        },
        {
          "internalType": "uint256",
          "name": "",
          "type": "uint256"
        }
      ],
      "name": "hasVoted",
      "outputs": [
        {
          "internalType": "bool",
          "name": "",
          "type": "bool"
        }
      ],
      "stateMutability": "view",
      "type": "function"
    },
    {
      "inputs": [],
      "name": "proposalCount",
      "outputs": [
        {
          "internalType": "uint256",
          "name": "",
          "type": "uint256"
        }
      ],
      "stateMutability": "view",
      "type": "function"
    },
    {
      "inputs": [
        {
          "internalType": "uint256",
          "name": "",
          "type": "uint256"
        }
      ],
      "name": "proposals",
      "outputs": [
        {
          "internalType": "string",
          "name": "description",
          "type": "string"
        },
        {
          "internalType": "address payable",
          "name": "recipient",
          "type": "address"
        },
        {
          "internalType": "uint256",
          "name": "amount",
          "type": "uint256"
        },
        {
          "internalType": "uint256",
          "name": "voteCount",
          "type": "uint256"
        },
        {
          "internalType": "uint256",
          "name": "votingDeadline",
          "type": "uint256"
        },
        {
          "internalType": "uint256",
          "name": "minVotesToPass",
          "type": "uint256"
        },
        {
          "internalType": "bool",
          "name": "executed",
          "type": "bool"
        }
      ],
      "stateMutability": "view",
      "type": "function"
    },
    {
      "inputs": [
        {
          "internalType": "uint256",
          "name": "_proposalId",
          "type": "uint256"
        }
      ],
      "name": "vote",
      "outputs": [],
      "stateMutability": "nonpayable",
      "type": "function"
    },
    {
      "stateMutability": "payable",
      "type": "receive"
    }
  ],
  "bytecode": "0x608060405234801561001057600080fd5b50600160028190555061138b806100286000396000f3fe6080604052600436106100595760003560e01c80630121b93f14610065578063013cf08b1461008e5780630d61b519146100d157806342545825146100fa5780638f380d2d14610137578063da35c6641461016057610060565b3661006057005b600080fd5b34801561007157600080fd5b5061008c600480360381019061008791906109f7565b61018b565b005b34801561009a57600080fd5b506100b560048036038101906100b091906109f7565b6102c3565b6040516100c89796959493929190610b1f565b60405180910390f35b3480156100dd57600080fd5b506100f860048036038101906100f391906109f7565b6103ba565b005b34801561010657600080fd5b50610121600480360381019061011c9190610bd3565b61052b565b60405161012e9190610c13565b60405180910390f35b34801561014357600080fd5b5061015e60048036038101906101599190610d8f565b61055a565b005b34801561016c57600080fd5b5061017561061c565b6040516101829190610e26565b60405180910390f35b600081148061019c57506002548110155b156101d3576040517ff299af6600000000000000000000000000000000000000000000000000000000815260040160405180910390fd5b600160003373ffffffffffffffffffffffffffffffffffffffff1673ffffffffffffffffffffffffffffffffffffffff168152602001908152602001600020600082815260200190815260200160002060009054906101000a900460ff1615610268576040517f7c9a1cf900000000000000000000000000000000000000000000000000000000815260040160405180910390fd5b600080828152602001908152602001600020600401544211156102b7576040517f6613a28200000000000000000000000000000000000000000000000000000000815260040160405180910390fd5b6102c081610622565b50565b60006020528060005260406000206000915090508060000180546102e690610e70565b80601f016020809104026020016040519081016040528092919081815260200182805461031290610e70565b801561035f5780601f106103345761010080835404028352916020019161035f565b820191906000526020600020905b81548152906001019060200180831161034257829003601f168201915b5050505050908060010160009054906101000a900473ffffffffffffffffffffffffffffffffffffffff16908060020154908060030154908060040154908060050154908060060160009054906101000a900460ff16905087565b60008114806103cb57506002548110155b15610402576040517ff299af6600000000000000000000000000000000000000000000000000000000815260040160405180910390fd5b6000806000838152602001908152602001600020905080600401544211610455576040517f335f0a6400000000000000000000000000000000000000000000000000000000815260040160405180910390fd5b8060060160009054906101000a900460ff161561049e576040517f51618d5300000000000000000000000000000000000000000000000000000000815260040160405180910390fd5b8060050154816003015410156104e0576040517f908b25e400000000000000000000000000000000000000000000000000000000815260040160405180910390fd5b806002015447101561051e576040517ff4d678b800000000000000000000000000000000000000000000000000000000815260040160405180910390fd5b610527826106f0565b5050565b60016020528160005260406000206020528060005260406000206000915091509054906101000a900460ff1681565b60008303610594576040517f5e85ae7300000000000000000000000000000000000000000000000000000000815260040160405180910390fd5b600082036105ce576040517f2390a4a800000000000000000000000000000000000000000000000000000000815260040160405180910390fd5b60008103610608576040517fb45ce69700000000000000000000000000000000000000000000000000000000815260040160405180910390fd5b6106158585858585610829565b5050505050565b60025481565b600080828152602001908152602001600020600301600081548092919061064890610ed0565b919050555060018060003373ffffffffffffffffffffffffffffffffffffffff1673ffffffffffffffffffffffffffffffffffffffff168152602001908152602001600020600083815260200190815260200160002060006101000a81548160ff021916908315150217905550807f030b0f8dcd86a031eddb071f91882edeac8173663ba775713b677b42b51be44b336040516106e59190610f27565b60405180910390a250565b6000806000838152602001908152602001600020905060018160060160006101000a81548160ff02191690831515021790555060008160010160009054906101000a900473ffffffffffffffffffffffffffffffffffffffff1673ffffffffffffffffffffffffffffffffffffffff16826002015460405161077190610f73565b60006040518083038185875af1925050503d80600081146107ae576040519150601f19603f3d011682016040523d82523d6000602084013e6107b3565b606091505b50509050806107f7576040517f08c379a00000000000000000000000000000000000000000000000000000000081526004016107ee90610fd4565b60405180910390fd5b827f712ae1383f79ac853f8d882153778e0260ef8f03b504e2866e0593e04d2b291f60405160405180910390a2505050565b600060025490506040518060e001604052808781526020018673ffffffffffffffffffffffffffffffffffffffff1681526020018581526020016000815260200184426108769190610ff4565b81526020018381526020016000151581525060008083815260200190815260200160002060008201518160000190816108af91906111d4565b5060208201518160010160006101000a81548173ffffffffffffffffffffffffffffffffffffffff021916908373ffffffffffffffffffffffffffffffffffffffff16021790555060408201518160020155606082015181600301556080820151816004015560a0820151816005015560c08201518160060160006101000a81548160ff021916908315150217905550905050807f28528fa183090d38f4c35574bb13fb455a547bda31d9bc9520957c9558f52f8e87878787426109739190610ff4565b876040516109859594939291906112fb565b60405180910390a2600260008154809291906109a090610ed0565b9190505550505050505050565b6000604051905090565b600080fd5b600080fd5b6000819050919050565b6109d4816109c1565b81146109df57600080fd5b50565b6000813590506109f1816109cb565b92915050565b600060208284031215610a0d57610a0c6109b7565b5b6000610a1b848285016109e2565b91505092915050565b600081519050919050565b600082825260208201905092915050565b60005b83811015610a5e578082015181840152602081019050610a43565b60008484015250505050565b6000601f19601f8301169050919050565b6000610a8682610a24565b610a908185610a2f565b9350610aa0818560208601610a40565b610aa981610a6a565b840191505092915050565b600073ffffffffffffffffffffffffffffffffffffffff82169050919050565b6000610adf82610ab4565b9050919050565b610aef81610ad4565b82525050565b610afe816109c1565b82525050565b60008115159050919050565b610b1981610b04565b82525050565b600060e0820190508181036000830152610b39818a610a7b565b9050610b486020830189610ae6565b610b556040830188610af5565b610b626060830187610af5565b610b6f6080830186610af5565b610b7c60a0830185610af5565b610b8960c0830184610b10565b98975050505050505050565b6000610ba082610ab4565b9050919050565b610bb081610b95565b8114610bbb57600080fd5b50565b600081359050610bcd81610ba7565b92915050565b60008060408385031215610bea57610be96109b7565b5b6000610bf885828601610bbe565b9250506020610c09858286016109e2565b9150509250929050565b6000602082019050610c286000830184610b10565b92915050565b600080fd5b600080fd5b7f4e487b7100000000000000000000000000000000000000000000000000000000600052604160045260246000fd5b610c7082610a6a565b810181811067ffffffffffffffff82111715610c8f57610c8e610c38565b5b80604052505050565b6000610ca26109ad565b9050610cae8282610c67565b919050565b600067ffffffffffffffff821115610cce57610ccd610c38565b5b610cd782610a6a565b9050602081019050919050565b82818337600083830152505050565b6000610d06610d0184610cb3565b610c98565b905082815260208101848484011115610d2257610d21610c33565b5b610d2d848285610ce4565b509392505050565b600082601f830112610d4a57610d49610c2e565b5b8135610d5a848260208601610cf3565b91505092915050565b610d6c81610ad4565b8114610d7757600080fd5b50565b600081359050610d8981610d63565b92915050565b600080600080600060a08688031215610dab57610daa6109b7565b5b600086013567ffffffffffffffff811115610dc957610dc86109bc565b5b610dd588828901610d35565b9550506020610de688828901610d7a565b9450506040610df7888289016109e2565b9350506060610e08888289016109e2565b9250506080610e19888289016109e2565b9150509295509295909350565b6000602082019050610e3b6000830184610af5565b92915050565b7f4e487b7100000000000000000000000000000000000000000000000000000000600052602260045260246000fd5b60006002820490506001821680610e8857607f821691505b602082108103610e9b57610e9a610e41565b5b50919050565b7f4e487b7100000000000000000000000000000000000000000000000000000000600052601160045260246000fd5b6000610edb826109c1565b91507fffffffffffffffffffffffffffffffffffffffffffffffffffffffffffffffff8203610f0d57610f0c610ea1565b5b600182019050919050565b610f2181610b95565b82525050565b6000602082019050610f3c6000830184610f18565b92915050565b600081905092915050565b50565b6000610f5d600083610f42565b9150610f6882610f4d565b600082019050919050565b6000610f7e82610f50565b9150819050919050565b7f5472616e73666572206661696c65640000000000000000000000000000000000600082015250565b6000610fbe600f83610a2f565b9150610fc982610f88565b602082019050919050565b60006020820190508181036000830152610fed81610fb1565b9050919050565b6000610fff826109c1565b915061100a836109c1565b925082820190508082111561102257611021610ea1565b5b92915050565b60008190508160005260206000209050919050565b60006020601f8301049050919050565b600082821b905092915050565b60006008830261108a7fffffffffffffffffffffffffffffffffffffffffffffffffffffffffffffffff8261104d565b611094868361104d565b95508019841693508086168417925050509392505050565b6000819050919050565b60006110d16110cc6110c7846109c1565b6110ac565b6109c1565b9050919050565b6000819050919050565b6110eb836110b6565b6110ff6110f7826110d8565b84845461105a565b825550505050565b600090565b611114611107565b61111f8184846110e2565b505050565b5b818110156111435761113860008261110c565b600181019050611125565b5050565b601f8211156111885761115981611028565b6111628461103d565b81016020851015611171578190505b61118561117d8561103d565b830182611124565b50505b505050565b600082821c905092915050565b60006111ab6000198460080261118d565b1980831691505092915050565b60006111c4838361119a565b9150826002028217905092915050565b6111dd82610a24565b67ffffffffffffffff8111156111f6576111f5610c38565b5b6112008254610e70565b61120b828285611147565b600060209050601f83116001811461123e576000841561122c578287015190505b61123685826111b8565b86555061129e565b601f19841661124c86611028565b60005b828110156112745784890151825560018201915060208501945060208101905061124f565b86831015611291578489015161128d601f89168261119a565b8355505b6001600288020188555050505b505050505050565b60006112c16112bc6112b784610ab4565b6110ac565b610ab4565b9050919050565b60006112d3826112a6565b9050919050565b60006112e5826112c8565b9050919050565b6112f5816112da565b82525050565b600060a08201905081810360008301526113158188610a7b565b905061132460208301876112ec565b6113316040830186610af5565b61133e6060830185610af5565b61134b6080830184610af5565b969550505050505056fea2646970667358221220a261fe3582b29589f04167f24ccdb07fa821aa59a7dec60eff1dc9adefee25e364736f6c63430008180033",
  "linkReferences": {},
  "deployedLinkReferences": {}
}