{
  "contracts/Proposal.sol": {
    "ProposalContract": {
      "abi": [
        {
          "inputs": [],
          "stateMutability": "nonpayable",
          "type": "constructor"
        },
        {
          "inputs": [],
          "name": "AlreadyVoted",
          "type": "error"
        },
        {
          "inputs": [],
          "name": "AmountMustBeGreaterThanZero",
          "type": "error"
        },
        {
          "inputs": [],
          "name": "InsufficientBalance",
          "type": "error"
        },
        {
          "inputs": [],
          "name": "InvalidProposalID",
          "type": "error"
        },
        {
          "inputs": [],
          "name": "MinVotesToPassMustBeGreaterThanZero",
          "type": "error"
        },
        {
          "inputs": [],
          "name": "NotEnoughVotesToPass",
          "type": "error"
        },
        {
          "inputs": [],
          "name": "ProposalAlreadyExecuted",
          "type": "error"
        },
        {
          "inputs": [],
          "name": "VotingPeriodHasEnded",
          "type": "error"
        },
        {
          "inputs": [],
          "name": "VotingPeriodMustBeGreaterThanZero",
          "type": "error"
        },
        {
          "inputs": [],
          "name": "VotingPeriodNotEnded",
          "type": "error"
        },
        {
          "anonymous": false,
          "inputs": [
            {
              "indexed": true,
              "internalType": "uint256",
              "name": "proposalId",
              "type": "uint256"
            },
            {
              "indexed": false,
              "internalType": "string",
              "name": "description",
              "type": "string"
            },
            {
              "indexed": false,
              "internalType": "address",
              "name": "recipient",
              "type": "address"
            },
            {
              "indexed": false,
              "internalType": "uint256",
              "name": "amount",
              "type": "uint256"
            },
            {
              "indexed": false,
              "internalType": "uint256",
              "name": "votingDeadline",
              "type": "uint256"
            },
            {
              "indexed": false,
              "internalType": "uint256",
              "name": "minVotesToPass",
              "type": "uint256"
            }
          ],
          "name": "ProposalCreated",
          "type": "event"
        },
        {
          "anonymous": false,
          "inputs": [
            {
              "indexed": true,
              "internalType": "uint256",
              "name": "proposalId",
              "type": "uint256"
            }
          ],
          "name": "ProposalExecuted",
          "type": "event"
        },
        {
          "anonymous": false,
          "inputs": [
            {
              "indexed": true,
              "internalType": "uint256",
              "name": "proposalId",
              "type": "uint256"
            },
            {
              "indexed": false,
              "internalType": "address",
              "name": "voter",
              "type": "address"
            }
          ],
          "name": "Voted",
          "type": "event"
        },
        {
          "inputs": [
            {
              "internalType": "string",
              "name": "_description",
              "type": "string"
            },
            {
              "internalType": "address payable",
              "name": "_recipient",
              "type": "address"
            },
            {
              "internalType": "uint256",
              "name": "_amount",
              "type": "uint256"
            },
            {
              "internalType": "uint256",
              "name": "_votingPeriod",
              "type": "uint256"
            },
            {
              "internalType": "uint256",
              "name": "_minVotesToPass",
              "type": "uint256"
            }
          ],
          "name": "createProposal",
          "outputs": [],
          "stateMutability": "nonpayable",
          "type": "function"
        },
        {
          "inputs": [
            {
              "internalType": "uint256",
              "name": "_proposalId",
              "type": "uint256"
            }
          ],
          "name": "executeProposal",
          "outputs": [],
          "stateMutability": "nonpayable",
          "type": "function"
        },
        {
          "inputs": [
            {
              "internalType": "address",
              "name": "",
              "type": "address"
            },
            {
              "internalType": "uint256",
              "name": "",
              "type": "uint256"
            }
          ],
          "name": "hasVoted",
          "outputs": [
            {
              "internalType": "bool",
              "name": "",
              "type": "bool"
            }
          ],
          "stateMutability": "view",
          "type": "function"
        },
        {
          "inputs": [],
          "name": "proposalCount",
          "outputs": [
            {
              "internalType": "uint256",
              "name": "",
              "type": "uint256"
            }
          ],
          "stateMutability": "view",
          "type": "function"
        },
        {
          "inputs": [
            {
              "internalType": "uint256",
              "name": "",
              "type": "uint256"
            }
          ],
          "name": "proposals",
          "outputs": [
            {
              "internalType": "string",
              "name": "description",
              "type": "string"
            },
            {
              "internalType": "address payable",
              "name": "recipient",
              "type": "address"
            },
            {
              "internalType": "uint256",
              "name": "amount",
              "type": "uint256"
            },
            {
              "internalType": "uint256",
              "name": "voteCount",
              "type": "uint256"
            },
            {
              "internalType": "uint256",
              "name": "votingDeadline",
              "type": "uint256"
            },
            {
              "internalType": "uint256",
              "name": "minVotesToPass",
              "type": "uint256"
            },
            {
              "internalType": "bool",
              "name": "executed",
              "type": "bool"
            }
          ],
          "stateMutability": "view",
          "type": "function"
        },
        {
          "inputs": [
            {
              "internalType": "uint256",
              "name": "_proposalId",
              "type": "uint256"
            }
          ],
          "name": "vote",
          "outputs": [],
          "stateMutability": "nonpayable",
          "type": "function"
        },
        {
          "stateMutability": "payable",
          "type": "receive"
        }
      ],
      "evm": {
        "bytecode": {
          "linkReferences": {},
          "object": "608060405234801561001057600080fd5b50600160028190555061138b806100286000396000f3fe6080604052600436106100595760003560e01c80630121b93f14610065578063013cf08b1461008e5780630d61b519146100d157806342545825146100fa5780638f380d2d14610137578063da35c6641461016057610060565b3661006057005b600080fd5b34801561007157600080fd5b5061008c600480360381019061008791906109f7565b61018b565b005b34801561009a57600080fd5b506100b560048036038101906100b091906109f7565b6102c3565b6040516100c89796959493929190610b1f565b60405180910390f35b3480156100dd57600080fd5b506100f860048036038101906100f391906109f7565b6103ba565b005b34801561010657600080fd5b50610121600480360381019061011c9190610bd3565b61052b565b60405161012e9190610c13565b60405180910390f35b34801561014357600080fd5b5061015e60048036038101906101599190610d8f565b61055a565b005b34801561016c57600080fd5b5061017561061c565b6040516101829190610e26565b60405180910390f35b600081148061019c57506002548110155b156101d3576040517ff299af6600000000000000000000000000000000000000000000000000000000815260040160405180910390fd5b600160003373ffffffffffffffffffffffffffffffffffffffff1673ffffffffffffffffffffffffffffffffffffffff168152602001908152602001600020600082815260200190815260200160002060009054906101000a900460ff1615610268576040517f7c9a1cf900000000000000000000000000000000000000000000000000000000815260040160405180910390fd5b600080828152602001908152602001600020600401544211156102b7576040517f6613a28200000000000000000000000000000000000000000000000000000000815260040160405180910390fd5b6102c081610622565b50565b60006020528060005260406000206000915090508060000180546102e690610e70565b80601f016020809104026020016040519081016040528092919081815260200182805461031290610e70565b801561035f5780601f106103345761010080835404028352916020019161035f565b820191906000526020600020905b81548152906001019060200180831161034257829003601f168201915b5050505050908060010160009054906101000a900473ffffffffffffffffffffffffffffffffffffffff16908060020154908060030154908060040154908060050154908060060160009054906101000a900460ff16905087565b60008114806103cb57506002548110155b15610402576040517ff299af6600000000000000000000000000000000000000000000000000000000815260040160405180910390fd5b6000806000838152602001908152602001600020905080600401544211610455576040517f335f0a6400000000000000000000000000000000000000000000000000000000815260040160405180910390fd5b8060060160009054906101000a900460ff161561049e576040517f51618d5300000000000000000000000000000000000000000000000000000000815260040160405180910390fd5b8060050154816003015410156104e0576040517f908b25e400000000000000000000000000000000000000000000000000000000815260040160405180910390fd5b806002015447101561051e576040517ff4d678b800000000000000000000000000000000000000000000000000000000815260040160405180910390fd5b610527826106f0565b5050565b60016020528160005260406000206020528060005260406000206000915091509054906101000a900460ff1681565b60008303610594576040517f5e85ae7300000000000000000000000000000000000000000000000000000000815260040160405180910390fd5b600082036105ce576040517f2390a4a800000000000000000000000000000000000000000000000000000000815260040160405180910390fd5b60008103610608576040517fb45ce69700000000000000000000000000000000000000000000000000000000815260040160405180910390fd5b6106158585858585610829565b5050505050565b60025481565b600080828152602001908152602001600020600301600081548092919061064890610ed0565b919050555060018060003373ffffffffffffffffffffffffffffffffffffffff1673ffffffffffffffffffffffffffffffffffffffff168152602001908152602001600020600083815260200190815260200160002060006101000a81548160ff021916908315150217905550807f030b0f8dcd86a031eddb071f91882edeac8173663ba775713b677b42b51be44b336040516106e59190610f27565b60405180910390a250565b6000806000838152602001908152602001600020905060018160060160006101000a81548160ff02191690831515021790555060008160010160009054906101000a900473ffffffffffffffffffffffffffffffffffffffff1673ffffffffffffffffffffffffffffffffffffffff16826002015460405161077190610f73565b60006040518083038185875af1925050503d80600081146107ae576040519150601f19603f3d011682016040523d82523d6000602084013e6107b3565b606091505b50509050806107f7576040517f08c379a00000000000000000000000000000000000000000000000000000000081526004016107ee90610fd4565b60405180910390fd5b827f712ae1383f79ac853f8d882153778e0260ef8f03b504e2866e0593e04d2b291f60405160405180910390a2505050565b600060025490506040518060e001604052808781526020018673ffffffffffffffffffffffffffffffffffffffff1681526020018581526020016000815260200184426108769190610ff4565b81526020018381526020016000151581525060008083815260200190815260200160002060008201518160000190816108af91906111d4565b5060208201518160010160006101000a81548173ffffffffffffffffffffffffffffffffffffffff021916908373ffffffffffffffffffffffffffffffffffffffff16021790555060408201518160020155606082015181600301556080820151816004015560a0820151816005015560c08201518160060160006101000a81548160ff021916908315150217905550905050807f28528fa183090d38f4c35574bb13fb455a547bda31d9bc9520957c9558f52f8e87878787426109739190610ff4565b876040516109859594939291906112fb565b60405180910390a2600260008154809291906109a090610ed0565b9190505550505050505050565b6000604051905090565b600080fd5b600080fd5b6000819050919050565b6109d4816109c1565b81146109df57600080fd5b50565b6000813590506109f1816109cb565b92915050565b600060208284031215610a0d57610a0c6109b7565b5b6000610a1b848285016109e2565b91505092915050565b600081519050919050565b600082825260208201905092915050565b60005b83811015610a5e578082015181840152602081019050610a43565b60008484015250505050565b6000601f19601f8301169050919050565b6000610a8682610a24565b610a908185610a2f565b9350610aa0818560208601610a40565b610aa981610a6a565b840191505092915050565b600073ffffffffffffffffffffffffffffffffffffffff82169050919050565b6000610adf82610ab4565b9050919050565b610aef81610ad4565b82525050565b610afe816109c1565b82525050565b60008115159050919050565b610b1981610b04565b82525050565b600060e0820190508181036000830152610b39818a610a7b565b9050610b486020830189610ae6565b610b556040830188610af5565b610b626060830187610af5565b610b6f6080830186610af5565b610b7c60a0830185610af5565b610b8960c0830184610b10565b98975050505050505050565b6000610ba082610ab4565b9050919050565b610bb081610b95565b8114610bbb57600080fd5b50565b600081359050610bcd81610ba7565b92915050565b60008060408385031215610bea57610be96109b7565b5b6000610bf885828601610bbe565b9250506020610c09858286016109e2565b9150509250929050565b6000602082019050610c286000830184610b10565b92915050565b600080fd5b600080fd5b7f4e487b7100000000000000000000000000000000000000000000000000000000600052604160045260246000fd5b610c7082610a6a565b810181811067ffffffffffffffff82111715610c8f57610c8e610c38565b5b80604052505050565b6000610ca26109ad565b9050610cae8282610c67565b919050565b600067ffffffffffffffff821115610cce57610ccd610c38565b5b610cd782610a6a565b9050602081019050919050565b82818337600083830152505050565b6000610d06610d0184610cb3565b610c98565b905082815260208101848484011115610d2257610d21610c33565b5b610d2d848285610ce4565b509392505050565b600082601f830112610d4a57610d49610c2e565b5b8135610d5a848260208601610cf3565b91505092915050565b610d6c81610ad4565b8114610d7757600080fd5b50565b600081359050610d8981610d63565b92915050565b600080600080600060a08688031215610dab57610daa6109b7565b5b600086013567ffffffffffffffff811115610dc957610dc86109bc565b5b610dd588828901610d35565b9550506020610de688828901610d7a565b9450506040610df7888289016109e2565b9350506060610e08888289016109e2565b9250506080610e19888289016109e2565b9150509295509295909350565b6000602082019050610e3b6000830184610af5565b92915050565b7f4e487b7100000000000000000000000000000000000000000000000000000000600052602260045260246000fd5b60006002820490506001821680610e8857607f821691505b602082108103610e9b57610e9a610e41565b5b50919050565b7f4e487b7100000000000000000000000000000000000000000000000000000000600052601160045260246000fd5b6000610edb826109c1565b91507fffffffffffffffffffffffffffffffffffffffffffffffffffffffffffffffff8203610f0d57610f0c610ea1565b5b600182019050919050565b610f2181610b95565b82525050565b6000602082019050610f3c6000830184610f18565b92915050565b600081905092915050565b50565b6000610f5d600083610f42565b9150610f6882610f4d565b600082019050919050565b6000610f7e82610f50565b9150819050919050565b7f5472616e73666572206661696c65640000000000000000000000000000000000600082015250565b6000610fbe600f83610a2f565b9150610fc982610f88565b602082019050919050565b60006020820190508181036000830152610fed81610fb1565b9050919050565b6000610fff826109c1565b915061100a836109c1565b925082820190508082111561102257611021610ea1565b5b92915050565b60008190508160005260206000209050919050565b60006020601f8301049050919050565b600082821b905092915050565b60006008830261108a7fffffffffffffffffffffffffffffffffffffffffffffffffffffffffffffffff8261104d565b611094868361104d565b95508019841693508086168417925050509392505050565b6000819050919050565b60006110d16110cc6110c7846109c1565b6110ac565b6109c1565b9050919050565b6000819050919050565b6110eb836110b6565b6110ff6110f7826110d8565b84845461105a565b825550505050565b600090565b611114611107565b61111f8184846110e2565b505050565b5b818110156111435761113860008261110c565b600181019050611125565b5050565b601f8211156111885761115981611028565b6111628461103d565b81016020851015611171578190505b61118561117d8561103d565b830182611124565b50505b505050565b600082821c905092915050565b60006111ab6000198460080261118d565b1980831691505092915050565b60006111c4838361119a565b9150826002028217905092915050565b6111dd82610a24565b67ffffffffffffffff8111156111f6576111f5610c38565b5b6112008254610e70565b61120b828285611147565b600060209050601f83116001811461123e576000841561122c578287015190505b61123685826111b8565b86555061129e565b601f19841661124c86611028565b60005b828110156112745784890151825560018201915060208501945060208101905061124f565b86831015611291578489015161128d601f89168261119a565b8355505b6001600288020188555050505b505050505050565b60006112c16112bc6112b784610ab4565b6110ac565b610ab4565b9050919050565b60006112d3826112a6565b9050919050565b60006112e5826112c8565b9050919050565b6112f5816112da565b82525050565b600060a08201905081810360008301526113158188610a7b565b905061132460208301876112ec565b6113316040830186610af5565b61133e6060830185610af5565b61134b6080830184610af5565b969550505050505056fea2646970667358221220a261fe3582b29589f04167f24ccdb07fa821aa59a7dec60eff1dc9adefee25e364736f6c63430008180033",
          "opcodes": "PUSH1 0x80 PUSH1 0x40 MSTORE CALLVALUE DUP1 ISZERO PUSH2 0x10 JUMPI PUSH1 0x0 DUP1 REVERT JUMPDEST POP PUSH1 0x1 PUSH1 0x2 DUP2 SWAP1 SSTORE POP PUSH2 0x138B DUP1 PUSH2 0x28 PUSH1 0x0 CODECOPY PUSH1 0x0 RETURN INVALID PUSH1 0x80 PUSH1 0x40 MSTORE PUSH1 0x4 CALLDATASIZE LT PUSH2 0x59 JUMPI PUSH1 0x0 CALLDATALOAD PUSH1 0xE0 SHR DUP1 PUSH4 0x121B93F EQ PUSH2 0x65 JUMPI DUP1 PUSH4 0x13CF08B EQ PUSH2 0x8E JUMPI DUP1 PUSH4 0xD61B519 EQ PUSH2 0xD1 JUMPI DUP1 PUSH4 0x42545825 EQ PUSH2 0xFA JUMPI DUP1 PUSH4 0x8F380D2D EQ PUSH2 0x137 JUMPI DUP1 PUSH4 0xDA35C664 EQ PUSH2 0x160 JUMPI PUSH2 0x60 JUMP JUMPDEST CALLDATASIZE PUSH2 0x60 JUMPI STOP JUMPDEST PUSH1 0x0 DUP1 REVERT JUMPDEST CALLVALUE DUP1 ISZERO PUSH2 0x71 JUMPI PUSH1 0x0 DUP1 REVERT JUMPDEST POP PUSH2 0x8C PUSH1 0x4 DUP1 CALLDATASIZE SUB DUP2 ADD SWAP1 PUSH2 0x87 SWAP2 SWAP1 PUSH2 0x9F7 JUMP JUMPDEST PUSH2 0x18B JUMP JUMPDEST STOP JUMPDEST CALLVALUE DUP1 ISZERO PUSH2 0x9A JUMPI PUSH1 0x0 DUP1 REVERT JUMPDEST POP PUSH2 0xB5 PUSH1 0x4 DUP1 CALLDATASIZE SUB DUP2 ADD SWAP1 PUSH2 0xB0 SWAP2 SWAP1 PUSH2 0x9F7 JUMP JUMPDEST PUSH2 0x2C3 JUMP JUMPDEST PUSH1 0x40 MLOAD PUSH2 0xC8 SWAP8 SWAP7 SWAP6 SWAP5 SWAP4 SWAP3 SWAP2 SWAP1 PUSH2 0xB1F JUMP JUMPDEST PUSH1 0x40 MLOAD DUP1 SWAP2 SUB SWAP1 RETURN JUMPDEST CALLVALUE DUP1 ISZERO PUSH2 0xDD JUMPI PUSH1 0x0 DUP1 REVERT JUMPDEST POP PUSH2 0xF8 PUSH1 0x4 DUP1 CALLDATASIZE SUB DUP2 ADD SWAP1 PUSH2 0xF3 SWAP2 SWAP1 PUSH2 0x9F7 JUMP JUMPDEST PUSH2 0x3BA JUMP JUMPDEST STOP JUMPDEST CALLVALUE DUP1 ISZERO PUSH2 0x106 JUMPI PUSH1 0x0 DUP1 REVERT JUMPDEST POP PUSH2 0x121 PUSH1 0x4 DUP1 CALLDATASIZE SUB DUP2 ADD SWAP1 PUSH2 0x11C SWAP2 SWAP1 PUSH2 0xBD3 JUMP JUMPDEST PUSH2 0x52B JUMP JUMPDEST PUSH1 0x40 MLOAD PUSH2 0x12E SWAP2 SWAP1 PUSH2 0xC13 JUMP JUMPDEST PUSH1 0x40 MLOAD DUP1 SWAP2 SUB SWAP1 RETURN JUMPDEST CALLVALUE DUP1 ISZERO PUSH2 0x143 JUMPI PUSH1 0x0 DUP1 REVERT JUMPDEST POP PUSH2 0x15E PUSH1 0x4 DUP1 CALLDATASIZE SUB DUP2 ADD SWAP1 PUSH2 0x159 SWAP2 SWAP1 PUSH2 0xD8F JUMP JUMPDEST PUSH2 0x55A JUMP JUMPDEST STOP JUMPDEST CALLVALUE DUP1 ISZERO PUSH2 0x16C JUMPI PUSH1 0x0 DUP1 REVERT JUMPDEST POP PUSH2 0x175 PUSH2 0x61C JUMP JUMPDEST PUSH1 0x40 MLOAD PUSH2 0x182 SWAP2 SWAP1 PUSH2 0xE26 JUMP JUMPDEST PUSH1 0x40 MLOAD DUP1 SWAP2 SUB SWAP1 RETURN JUMPDEST PUSH1 0x0 DUP2 EQ DUP1 PUSH2 0x19C JUMPI POP PUSH1 0x2 SLOAD DUP2 LT ISZERO JUMPDEST ISZERO PUSH2 0x1D3 JUMPI PUSH1 0x40 MLOAD PUSH32 0xF299AF6600000000000000000000000000000000000000000000000000000000 DUP2 MSTORE PUSH1 0x4 ADD PUSH1 0x40 MLOAD DUP1 SWAP2 SUB SWAP1 REVERT JUMPDEST PUSH1 0x1 PUSH1 0x0 CALLER PUSH20 0xFFFFFFFFFFFFFFFFFFFFFFFFFFFFFFFFFFFFFFFF AND PUSH20 0xFFFFFFFFFFFFFFFFFFFFFFFFFFFFFFFFFFFFFFFF AND DUP2 MSTORE PUSH1 0x20 ADD SWAP1 DUP2 MSTORE PUSH1 0x20 ADD PUSH1 0x0 KECCAK256 PUSH1 0x0 DUP3 DUP2 MSTORE PUSH1 0x20 ADD SWAP1 DUP2 MSTORE PUSH1 0x20 ADD PUSH1 0x0 KECCAK256 PUSH1 0x0 SWAP1 SLOAD SWAP1 PUSH2 0x100 EXP SWAP1 DIV PUSH1 0xFF AND ISZERO PUSH2 0x268 JUMPI PUSH1 0x40 MLOAD PUSH32 0x7C9A1CF900000000000000000000000000000000000000000000000000000000 DUP2 MSTORE PUSH1 0x4 ADD PUSH1 0x40 MLOAD DUP1 SWAP2 SUB SWAP1 REVERT JUMPDEST PUSH1 0x0 DUP1 DUP3 DUP2 MSTORE PUSH1 0x20 ADD SWAP1 DUP2 MSTORE PUSH1 0x20 ADD PUSH1 0x0 KECCAK256 PUSH1 0x4 ADD SLOAD TIMESTAMP GT ISZERO PUSH2 0x2B7 JUMPI PUSH1 0x40 MLOAD PUSH32 0x6613A28200000000000000000000000000000000000000000000000000000000 DUP2 MSTORE PUSH1 0x4 ADD PUSH1 0x40 MLOAD DUP1 SWAP2 SUB SWAP1 REVERT JUMPDEST PUSH2 0x2C0 DUP2 PUSH2 0x622 JUMP JUMPDEST POP JUMP JUMPDEST PUSH1 0x0 PUSH1 0x20 MSTORE DUP1 PUSH1 0x0 MSTORE PUSH1 0x40 PUSH1 0x0 KECCAK256 PUSH1 0x0 SWAP2 POP SWAP1 POP DUP1 PUSH1 0x0 ADD DUP1 SLOAD PUSH2 0x2E6 SWAP1 PUSH2 0xE70 JUMP JUMPDEST DUP1 PUSH1 0x1F ADD PUSH1 0x20 DUP1 SWAP2 DIV MUL PUSH1 0x20 ADD PUSH1 0x40 MLOAD SWAP1 DUP2 ADD PUSH1 0x40 MSTORE DUP1 SWAP3 SWAP2 SWAP1 DUP2 DUP2 MSTORE PUSH1 0x20 ADD DUP3 DUP1 SLOAD PUSH2 0x312 SWAP1 PUSH2 0xE70 JUMP JUMPDEST DUP1 ISZERO PUSH2 0x35F JUMPI DUP1 PUSH1 0x1F LT PUSH2 0x334 JUMPI PUSH2 0x100 DUP1 DUP4 SLOAD DIV MUL DUP4 MSTORE SWAP2 PUSH1 0x20 ADD SWAP2 PUSH2 0x35F JUMP JUMPDEST DUP3 ADD SWAP2 SWAP1 PUSH1 0x0 MSTORE PUSH1 0x20 PUSH1 0x0 KECCAK256 SWAP1 JUMPDEST DUP2 SLOAD DUP2 MSTORE SWAP1 PUSH1 0x1 ADD SWAP1 PUSH1 0x20 ADD DUP1 DUP4 GT PUSH2 0x342 JUMPI DUP3 SWAP1 SUB PUSH1 0x1F AND DUP3 ADD SWAP2 JUMPDEST POP POP POP POP POP SWAP1 DUP1 PUSH1 0x1 ADD PUSH1 0x0 SWAP1 SLOAD SWAP1 PUSH2 0x100 EXP SWAP1 DIV PUSH20 0xFFFFFFFFFFFFFFFFFFFFFFFFFFFFFFFFFFFFFFFF AND SWAP1 DUP1 PUSH1 0x2 ADD SLOAD SWAP1 DUP1 PUSH1 0x3 ADD SLOAD SWAP1 DUP1 PUSH1 0x4 ADD SLOAD SWAP1 DUP1 PUSH1 0x5 ADD SLOAD SWAP1 DUP1 PUSH1 0x6 ADD PUSH1 0x0 SWAP1 SLOAD SWAP1 PUSH2 0x100 EXP SWAP1 DIV PUSH1 0xFF AND SWAP1 POP DUP8 JUMP JUMPDEST PUSH1 0x0 DUP2 EQ DUP1 PUSH2 0x3CB JUMPI POP PUSH1 0x2 SLOAD DUP2 LT ISZERO JUMPDEST ISZERO PUSH2 0x402 JUMPI PUSH1 0x40 MLOAD PUSH32 0xF299AF6600000000000000000000000000000000000000000000000000000000 DUP2 MSTORE PUSH1 0x4 ADD PUSH1 0x40 MLOAD DUP1 SWAP2 SUB SWAP1 REVERT JUMPDEST PUSH1 0x0 DUP1 PUSH1 0x0 DUP4 DUP2 MSTORE PUSH1 0x20 ADD SWAP1 DUP2 MSTORE PUSH1 0x20 ADD PUSH1 0x0 KECCAK256 SWAP1 POP DUP1 PUSH1 0x4 ADD SLOAD TIMESTAMP GT PUSH2 0x455 JUMPI PUSH1 0x40 MLOAD PUSH32 0x335F0A6400000000000000000000000000000000000000000000000000000000 DUP2 MSTORE PUSH1 0x4 ADD PUSH1 0x40 MLOAD DUP1 SWAP2 SUB SWAP1 REVERT JUMPDEST DUP1 PUSH1 0x6 ADD PUSH1 0x0 SWAP1 SLOAD SWAP1 PUSH2 0x100 EXP SWAP1 DIV PUSH1 0xFF AND ISZERO PUSH2 0x49E JUMPI PUSH1 0x40 MLOAD PUSH32 0x51618D5300000000000000000000000000000000000000000000000000000000 DUP2 MSTORE PUSH1 0x4 ADD PUSH1 0x40 MLOAD DUP1 SWAP2 SUB SWAP1 REVERT JUMPDEST DUP1 PUSH1 0x5 ADD SLOAD DUP2 PUSH1 0x3 ADD SLOAD LT ISZERO PUSH2 0x4E0 JUMPI PUSH1 0x40 MLOAD PUSH32 0x908B25E400000000000000000000000000000000000000000000000000000000 DUP2 MSTORE PUSH1 0x4 ADD PUSH1 0x40 MLOAD DUP1 SWAP2 SUB SWAP1 REVERT JUMPDEST DUP1 PUSH1 0x2 ADD SLOAD SELFBALANCE LT ISZERO PUSH2 0x51E JUMPI PUSH1 0x40 MLOAD PUSH32 0xF4D678B800000000000000000000000000000000000000000000000000000000 DUP2 MSTORE PUSH1 0x4 ADD PUSH1 0x40 MLOAD DUP1 SWAP2 SUB SWAP1 REVERT JUMPDEST PUSH2 0x527 DUP3 PUSH2 0x6F0 JUMP JUMPDEST POP POP JUMP JUMPDEST PUSH1 0x1 PUSH1 0x20 MSTORE DUP2 PUSH1 0x0 MSTORE PUSH1 0x40 PUSH1 0x0 KECCAK256 PUSH1 0x20 MSTORE DUP1 PUSH1 0x0 MSTORE PUSH1 0x40 PUSH1 0x0 KECCAK256 PUSH1 0x0 SWAP2 POP SWAP2 POP SWAP1 SLOAD SWAP1 PUSH2 0x100 EXP SWAP1 DIV PUSH1 0xFF AND DUP2 JUMP JUMPDEST PUSH1 0x0 DUP4 SUB PUSH2 0x594 JUMPI PUSH1 0x40 MLOAD PUSH32 0x5E85AE7300000000000000000000000000000000000000000000000000000000 DUP2 MSTORE PUSH1 0x4 ADD PUSH1 0x40 MLOAD DUP1 SWAP2 SUB SWAP1 REVERT JUMPDEST PUSH1 0x0 DUP3 SUB PUSH2 0x5CE JUMPI PUSH1 0x40 MLOAD PUSH32 0x2390A4A800000000000000000000000000000000000000000000000000000000 DUP2 MSTORE PUSH1 0x4 ADD PUSH1 0x40 MLOAD DUP1 SWAP2 SUB SWAP1 REVERT JUMPDEST PUSH1 0x0 DUP2 SUB PUSH2 0x608 JUMPI PUSH1 0x40 MLOAD PUSH32 0xB45CE69700000000000000000000000000000000000000000000000000000000 DUP2 MSTORE PUSH1 0x4 ADD PUSH1 0x40 MLOAD DUP1 SWAP2 SUB SWAP1 REVERT JUMPDEST PUSH2 0x615 DUP6 DUP6 DUP6 DUP6 DUP6 PUSH2 0x829 JUMP JUMPDEST POP POP POP POP POP JUMP JUMPDEST PUSH1 0x2 SLOAD DUP2 JUMP JUMPDEST PUSH1 0x0 DUP1 DUP3 DUP2 MSTORE PUSH1 0x20 ADD SWAP1 DUP2 MSTORE PUSH1 0x20 ADD PUSH1 0x0 KECCAK256 PUSH1 0x3 ADD PUSH1 0x0 DUP2 SLOAD DUP1 SWAP3 SWAP2 SWAP1 PUSH2 0x648 SWAP1 PUSH2 0xED0 JUMP JUMPDEST SWAP2 SWAP1 POP SSTORE POP PUSH1 0x1 DUP1 PUSH1 0x0 CALLER PUSH20 0xFFFFFFFFFFFFFFFFFFFFFFFFFFFFFFFFFFFFFFFF AND PUSH20 0xFFFFFFFFFFFFFFFFFFFFFFFFFFFFFFFFFFFFFFFF AND DUP2 MSTORE PUSH1 0x20 ADD SWAP1 DUP2 MSTORE PUSH1 0x20 ADD PUSH1 0x0 KECCAK256 PUSH1 0x0 DUP4 DUP2 MSTORE PUSH1 0x20 ADD SWAP1 DUP2 MSTORE PUSH1 0x20 ADD PUSH1 0x0 KECCAK256 PUSH1 0x0 PUSH2 0x100 EXP DUP2 SLOAD DUP2 PUSH1 0xFF MUL NOT AND SWAP1 DUP4 ISZERO ISZERO MUL OR SWAP1 SSTORE POP DUP1 PUSH32 0x30B0F8DCD86A031EDDB071F91882EDEAC8173663BA775713B677B42B51BE44B CALLER PUSH1 0x40 MLOAD PUSH2 0x6E5 SWAP2 SWAP1 PUSH2 0xF27 JUMP JUMPDEST PUSH1 0x40 MLOAD DUP1 SWAP2 SUB SWAP1 LOG2 POP JUMP JUMPDEST PUSH1 0x0 DUP1 PUSH1 0x0 DUP4 DUP2 MSTORE PUSH1 0x20 ADD SWAP1 DUP2 MSTORE PUSH1 0x20 ADD PUSH1 0x0 KECCAK256 SWAP1 POP PUSH1 0x1 DUP2 PUSH1 0x6 ADD PUSH1 0x0 PUSH2 0x100 EXP DUP2 SLOAD DUP2 PUSH1 0xFF MUL NOT AND SWAP1 DUP4 ISZERO ISZERO MUL OR SWAP1 SSTORE POP PUSH1 0x0 DUP2 PUSH1 0x1 ADD PUSH1 0x0 SWAP1 SLOAD SWAP1 PUSH2 0x100 EXP SWAP1 DIV PUSH20 0xFFFFFFFFFFFFFFFFFFFFFFFFFFFFFFFFFFFFFFFF AND PUSH20 0xFFFFFFFFFFFFFFFFFFFFFFFFFFFFFFFFFFFFFFFF AND DUP3 PUSH1 0x2 ADD SLOAD PUSH1 0x40 MLOAD PUSH2 0x771 SWAP1 PUSH2 0xF73 JUMP JUMPDEST PUSH1 0x0 PUSH1 0x40 MLOAD DUP1 DUP4 SUB DUP2 DUP6 DUP8 GAS CALL SWAP3 POP POP POP RETURNDATASIZE DUP1 PUSH1 0x0 DUP2 EQ PUSH2 0x7AE JUMPI PUSH1 0x40 MLOAD SWAP2 POP PUSH1 0x1F NOT PUSH1 0x3F RETURNDATASIZE ADD AND DUP3 ADD PUSH1 0x40 MSTORE RETURNDATASIZE DUP3 MSTORE RETURNDATASIZE PUSH1 0x0 PUSH1 0x20 DUP5 ADD RETURNDATACOPY PUSH2 0x7B3 JUMP JUMPDEST PUSH1 0x60 SWAP2 POP JUMPDEST POP POP SWAP1 POP DUP1 PUSH2 0x7F7 JUMPI PUSH1 0x40 MLOAD PUSH32 0x8C379A000000000000000000000000000000000000000000000000000000000 DUP2 MSTORE PUSH1 0x4 ADD PUSH2 0x7EE SWAP1 PUSH2 0xFD4 JUMP JUMPDEST PUSH1 0x40 MLOAD DUP1 SWAP2 SUB SWAP1 REVERT JUMPDEST DUP3 PUSH32 0x712AE1383F79AC853F8D882153778E0260EF8F03B504E2866E0593E04D2B291F PUSH1 0x40 MLOAD PUSH1 0x40 MLOAD DUP1 SWAP2 SUB SWAP1 LOG2 POP POP POP JUMP JUMPDEST PUSH1 0x0 PUSH1 0x2 SLOAD SWAP1 POP PUSH1 0x40 MLOAD DUP1 PUSH1 0xE0 ADD PUSH1 0x40 MSTORE DUP1 DUP8 DUP2 MSTORE PUSH1 0x20 ADD DUP7 PUSH20 0xFFFFFFFFFFFFFFFFFFFFFFFFFFFFFFFFFFFFFFFF AND DUP2 MSTORE PUSH1 0x20 ADD DUP6 DUP2 MSTORE PUSH1 0x20 ADD PUSH1 0x0 DUP2 MSTORE PUSH1 0x20 ADD DUP5 TIMESTAMP PUSH2 0x876 SWAP2 SWAP1 PUSH2 0xFF4 JUMP JUMPDEST DUP2 MSTORE PUSH1 0x20 ADD DUP4 DUP2 MSTORE PUSH1 0x20 ADD PUSH1 0x0 ISZERO ISZERO DUP2 MSTORE POP PUSH1 0x0 DUP1 DUP4 DUP2 MSTORE PUSH1 0x20 ADD SWAP1 DUP2 MSTORE PUSH1 0x20 ADD PUSH1 0x0 KECCAK256 PUSH1 0x0 DUP3 ADD MLOAD DUP2 PUSH1 0x0 ADD SWAP1 DUP2 PUSH2 0x8AF SWAP2 SWAP1 PUSH2 0x11D4 JUMP JUMPDEST POP PUSH1 0x20 DUP3 ADD MLOAD DUP2 PUSH1 0x1 ADD PUSH1 0x0 PUSH2 0x100 EXP DUP2 SLOAD DUP2 PUSH20 0xFFFFFFFFFFFFFFFFFFFFFFFFFFFFFFFFFFFFFFFF MUL NOT AND SWAP1 DUP4 PUSH20 0xFFFFFFFFFFFFFFFFFFFFFFFFFFFFFFFFFFFFFFFF AND MUL OR SWAP1 SSTORE POP PUSH1 0x40 DUP3 ADD MLOAD DUP2 PUSH1 0x2 ADD SSTORE PUSH1 0x60 DUP3 ADD MLOAD DUP2 PUSH1 0x3 ADD SSTORE PUSH1 0x80 DUP3 ADD MLOAD DUP2 PUSH1 0x4 ADD SSTORE PUSH1 0xA0 DUP3 ADD MLOAD DUP2 PUSH1 0x5 ADD SSTORE PUSH1 0xC0 DUP3 ADD MLOAD DUP2 PUSH1 0x6 ADD PUSH1 0x0 PUSH2 0x100 EXP DUP2 SLOAD DUP2 PUSH1 0xFF MUL NOT AND SWAP1 DUP4 ISZERO ISZERO MUL OR SWAP1 SSTORE POP SWAP1 POP POP DUP1 PUSH32 0x28528FA183090D38F4C35574BB13FB455A547BDA31D9BC9520957C9558F52F8E DUP8 DUP8 DUP8 DUP8 TIMESTAMP PUSH2 0x973 SWAP2 SWAP1 PUSH2 0xFF4 JUMP JUMPDEST DUP8 PUSH1 0x40 MLOAD PUSH2 0x985 SWAP6 SWAP5 SWAP4 SWAP3 SWAP2 SWAP1 PUSH2 0x12FB JUMP JUMPDEST PUSH1 0x40 MLOAD DUP1 SWAP2 SUB SWAP1 LOG2 PUSH1 0x2 PUSH1 0x0 DUP2 SLOAD DUP1 SWAP3 SWAP2 SWAP1 PUSH2 0x9A0 SWAP1 PUSH2 0xED0 JUMP JUMPDEST SWAP2 SWAP1 POP SSTORE POP POP POP POP POP POP POP JUMP JUMPDEST PUSH1 0x0 PUSH1 0x40 MLOAD SWAP1 POP SWAP1 JUMP JUMPDEST PUSH1 0x0 DUP1 REVERT JUMPDEST PUSH1 0x0 DUP1 REVERT JUMPDEST PUSH1 0x0 DUP2 SWAP1 POP SWAP2 SWAP1 POP JUMP JUMPDEST PUSH2 0x9D4 DUP2 PUSH2 0x9C1 JUMP JUMPDEST DUP2 EQ PUSH2 0x9DF JUMPI PUSH1 0x0 DUP1 REVERT JUMPDEST POP JUMP JUMPDEST PUSH1 0x0 DUP2 CALLDATALOAD SWAP1 POP PUSH2 0x9F1 DUP2 PUSH2 0x9CB JUMP JUMPDEST SWAP3 SWAP2 POP POP JUMP JUMPDEST PUSH1 0x0 PUSH1 0x20 DUP3 DUP5 SUB SLT ISZERO PUSH2 0xA0D JUMPI PUSH2 0xA0C PUSH2 0x9B7 JUMP JUMPDEST JUMPDEST PUSH1 0x0 PUSH2 0xA1B DUP5 DUP3 DUP6 ADD PUSH2 0x9E2 JUMP JUMPDEST SWAP2 POP POP SWAP3 SWAP2 POP POP JUMP JUMPDEST PUSH1 0x0 DUP2 MLOAD SWAP1 POP SWAP2 SWAP1 POP JUMP JUMPDEST PUSH1 0x0 DUP3 DUP3 MSTORE PUSH1 0x20 DUP3 ADD SWAP1 POP SWAP3 SWAP2 POP POP JUMP JUMPDEST PUSH1 0x0 JUMPDEST DUP4 DUP2 LT ISZERO PUSH2 0xA5E JUMPI DUP1 DUP3 ADD MLOAD DUP2 DUP5 ADD MSTORE PUSH1 0x20 DUP2 ADD SWAP1 POP PUSH2 0xA43 JUMP JUMPDEST PUSH1 0x0 DUP5 DUP5 ADD MSTORE POP POP POP POP JUMP JUMPDEST PUSH1 0x0 PUSH1 0x1F NOT PUSH1 0x1F DUP4 ADD AND SWAP1 POP SWAP2 SWAP1 POP JUMP JUMPDEST PUSH1 0x0 PUSH2 0xA86 DUP3 PUSH2 0xA24 JUMP JUMPDEST PUSH2 0xA90 DUP2 DUP6 PUSH2 0xA2F JUMP JUMPDEST SWAP4 POP PUSH2 0xAA0 DUP2 DUP6 PUSH1 0x20 DUP7 ADD PUSH2 0xA40 JUMP JUMPDEST PUSH2 0xAA9 DUP2 PUSH2 0xA6A JUMP JUMPDEST DUP5 ADD SWAP2 POP POP SWAP3 SWAP2 POP POP JUMP JUMPDEST PUSH1 0x0 PUSH20 0xFFFFFFFFFFFFFFFFFFFFFFFFFFFFFFFFFFFFFFFF DUP3 AND SWAP1 POP SWAP2 SWAP1 POP JUMP JUMPDEST PUSH1 0x0 PUSH2 0xADF DUP3 PUSH2 0xAB4 JUMP JUMPDEST SWAP1 POP SWAP2 SWAP1 POP JUMP JUMPDEST PUSH2 0xAEF DUP2 PUSH2 0xAD4 JUMP JUMPDEST DUP3 MSTORE POP POP JUMP JUMPDEST PUSH2 0xAFE DUP2 PUSH2 0x9C1 JUMP JUMPDEST DUP3 MSTORE POP POP JUMP JUMPDEST PUSH1 0x0 DUP2 ISZERO ISZERO SWAP1 POP SWAP2 SWAP1 POP JUMP JUMPDEST PUSH2 0xB19 DUP2 PUSH2 0xB04 JUMP JUMPDEST DUP3 MSTORE POP POP JUMP JUMPDEST PUSH1 0x0 PUSH1 0xE0 DUP3 ADD SWAP1 POP DUP2 DUP2 SUB PUSH1 0x0 DUP4 ADD MSTORE PUSH2 0xB39 DUP2 DUP11 PUSH2 0xA7B JUMP JUMPDEST SWAP1 POP PUSH2 0xB48 PUSH1 0x20 DUP4 ADD DUP10 PUSH2 0xAE6 JUMP JUMPDEST PUSH2 0xB55 PUSH1 0x40 DUP4 ADD DUP9 PUSH2 0xAF5 JUMP JUMPDEST PUSH2 0xB62 PUSH1 0x60 DUP4 ADD DUP8 PUSH2 0xAF5 JUMP JUMPDEST PUSH2 0xB6F PUSH1 0x80 DUP4 ADD DUP7 PUSH2 0xAF5 JUMP JUMPDEST PUSH2 0xB7C PUSH1 0xA0 DUP4 ADD DUP6 PUSH2 0xAF5 JUMP JUMPDEST PUSH2 0xB89 PUSH1 0xC0 DUP4 ADD DUP5 PUSH2 0xB10 JUMP JUMPDEST SWAP9 SWAP8 POP POP POP POP POP POP POP POP JUMP JUMPDEST PUSH1 0x0 PUSH2 0xBA0 DUP3 PUSH2 0xAB4 JUMP JUMPDEST SWAP1 POP SWAP2 SWAP1 POP JUMP JUMPDEST PUSH2 0xBB0 DUP2 PUSH2 0xB95 JUMP JUMPDEST DUP2 EQ PUSH2 0xBBB JUMPI PUSH1 0x0 DUP1 REVERT JUMPDEST POP JUMP JUMPDEST PUSH1 0x0 DUP2 CALLDATALOAD SWAP1 POP PUSH2 0xBCD DUP2 PUSH2 0xBA7 JUMP JUMPDEST SWAP3 SWAP2 POP POP JUMP JUMPDEST PUSH1 0x0 DUP1 PUSH1 0x40 DUP4 DUP6 SUB SLT ISZERO PUSH2 0xBEA JUMPI PUSH2 0xBE9 PUSH2 0x9B7 JUMP JUMPDEST JUMPDEST PUSH1 0x0 PUSH2 0xBF8 DUP6 DUP3 DUP7 ADD PUSH2 0xBBE JUMP JUMPDEST SWAP3 POP POP PUSH1 0x20 PUSH2 0xC09 DUP6 DUP3 DUP7 ADD PUSH2 0x9E2 JUMP JUMPDEST SWAP2 POP POP SWAP3 POP SWAP3 SWAP1 POP JUMP JUMPDEST PUSH1 0x0 PUSH1 0x20 DUP3 ADD SWAP1 POP PUSH2 0xC28 PUSH1 0x0 DUP4 ADD DUP5 PUSH2 0xB10 JUMP JUMPDEST SWAP3 SWAP2 POP POP JUMP JUMPDEST PUSH1 0x0 DUP1 REVERT JUMPDEST PUSH1 0x0 DUP1 REVERT JUMPDEST PUSH32 0x4E487B7100000000000000000000000000000000000000000000000000000000 PUSH1 0x0 MSTORE PUSH1 0x41 PUSH1 0x4 MSTORE PUSH1 0x24 PUSH1 0x0 REVERT JUMPDEST PUSH2 0xC70 DUP3 PUSH2 0xA6A JUMP JUMPDEST DUP2 ADD DUP2 DUP2 LT PUSH8 0xFFFFFFFFFFFFFFFF DUP3 GT OR ISZERO PUSH2 0xC8F JUMPI PUSH2 0xC8E PUSH2 0xC38 JUMP JUMPDEST JUMPDEST DUP1 PUSH1 0x40 MSTORE POP POP POP JUMP JUMPDEST PUSH1 0x0 PUSH2 0xCA2 PUSH2 0x9AD JUMP JUMPDEST SWAP1 POP PUSH2 0xCAE DUP3 DUP3 PUSH2 0xC67 JUMP JUMPDEST SWAP2 SWAP1 POP JUMP JUMPDEST PUSH1 0x0 PUSH8 0xFFFFFFFFFFFFFFFF DUP3 GT ISZERO PUSH2 0xCCE JUMPI PUSH2 0xCCD PUSH2 0xC38 JUMP JUMPDEST JUMPDEST PUSH2 0xCD7 DUP3 PUSH2 0xA6A JUMP JUMPDEST SWAP1 POP PUSH1 0x20 DUP2 ADD SWAP1 POP SWAP2 SWAP1 POP JUMP JUMPDEST DUP3 DUP2 DUP4 CALLDATACOPY PUSH1 0x0 DUP4 DUP4 ADD MSTORE POP POP POP JUMP JUMPDEST PUSH1 0x0 PUSH2 0xD06 PUSH2 0xD01 DUP5 PUSH2 0xCB3 JUMP JUMPDEST PUSH2 0xC98 JUMP JUMPDEST SWAP1 POP DUP3 DUP2 MSTORE PUSH1 0x20 DUP2 ADD DUP5 DUP5 DUP5 ADD GT ISZERO PUSH2 0xD22 JUMPI PUSH2 0xD21 PUSH2 0xC33 JUMP JUMPDEST JUMPDEST PUSH2 0xD2D DUP5 DUP3 DUP6 PUSH2 0xCE4 JUMP JUMPDEST POP SWAP4 SWAP3 POP POP POP JUMP JUMPDEST PUSH1 0x0 DUP3 PUSH1 0x1F DUP4 ADD SLT PUSH2 0xD4A JUMPI PUSH2 0xD49 PUSH2 0xC2E JUMP JUMPDEST JUMPDEST DUP2 CALLDATALOAD PUSH2 0xD5A DUP5 DUP3 PUSH1 0x20 DUP7 ADD PUSH2 0xCF3 JUMP JUMPDEST SWAP2 POP POP SWAP3 SWAP2 POP POP JUMP JUMPDEST PUSH2 0xD6C DUP2 PUSH2 0xAD4 JUMP JUMPDEST DUP2 EQ PUSH2 0xD77 JUMPI PUSH1 0x0 DUP1 REVERT JUMPDEST POP JUMP JUMPDEST PUSH1 0x0 DUP2 CALLDATALOAD SWAP1 POP PUSH2 0xD89 DUP2 PUSH2 0xD63 JUMP JUMPDEST SWAP3 SWAP2 POP POP JUMP JUMPDEST PUSH1 0x0 DUP1 PUSH1 0x0 DUP1 PUSH1 0x0 PUSH1 0xA0 DUP7 DUP9 SUB SLT ISZERO PUSH2 0xDAB JUMPI PUSH2 0xDAA PUSH2 0x9B7 JUMP JUMPDEST JUMPDEST PUSH1 0x0 DUP7 ADD CALLDATALOAD PUSH8 0xFFFFFFFFFFFFFFFF DUP2 GT ISZERO PUSH2 0xDC9 JUMPI PUSH2 0xDC8 PUSH2 0x9BC JUMP JUMPDEST JUMPDEST PUSH2 0xDD5 DUP9 DUP3 DUP10 ADD PUSH2 0xD35 JUMP JUMPDEST SWAP6 POP POP PUSH1 0x20 PUSH2 0xDE6 DUP9 DUP3 DUP10 ADD PUSH2 0xD7A JUMP JUMPDEST SWAP5 POP POP PUSH1 0x40 PUSH2 0xDF7 DUP9 DUP3 DUP10 ADD PUSH2 0x9E2 JUMP JUMPDEST SWAP4 POP POP PUSH1 0x60 PUSH2 0xE08 DUP9 DUP3 DUP10 ADD PUSH2 0x9E2 JUMP JUMPDEST SWAP3 POP POP PUSH1 0x80 PUSH2 0xE19 DUP9 DUP3 DUP10 ADD PUSH2 0x9E2 JUMP JUMPDEST SWAP2 POP POP SWAP3 SWAP6 POP SWAP3 SWAP6 SWAP1 SWAP4 POP JUMP JUMPDEST PUSH1 0x0 PUSH1 0x20 DUP3 ADD SWAP1 POP PUSH2 0xE3B PUSH1 0x0 DUP4 ADD DUP5 PUSH2 0xAF5 JUMP JUMPDEST SWAP3 SWAP2 POP POP JUMP JUMPDEST PUSH32 0x4E487B7100000000000000000000000000000000000000000000000000000000 PUSH1 0x0 MSTORE PUSH1 0x22 PUSH1 0x4 MSTORE PUSH1 0x24 PUSH1 0x0 REVERT JUMPDEST PUSH1 0x0 PUSH1 0x2 DUP3 DIV SWAP1 POP PUSH1 0x1 DUP3 AND DUP1 PUSH2 0xE88 JUMPI PUSH1 0x7F DUP3 AND SWAP2 POP JUMPDEST PUSH1 0x20 DUP3 LT DUP2 SUB PUSH2 0xE9B JUMPI PUSH2 0xE9A PUSH2 0xE41 JUMP JUMPDEST JUMPDEST POP SWAP2 SWAP1 POP JUMP JUMPDEST PUSH32 0x4E487B7100000000000000000000000000000000000000000000000000000000 PUSH1 0x0 MSTORE PUSH1 0x11 PUSH1 0x4 MSTORE PUSH1 0x24 PUSH1 0x0 REVERT JUMPDEST PUSH1 0x0 PUSH2 0xEDB DUP3 PUSH2 0x9C1 JUMP JUMPDEST SWAP2 POP PUSH32 0xFFFFFFFFFFFFFFFFFFFFFFFFFFFFFFFFFFFFFFFFFFFFFFFFFFFFFFFFFFFFFFFF DUP3 SUB PUSH2 0xF0D JUMPI PUSH2 0xF0C PUSH2 0xEA1 JUMP JUMPDEST JUMPDEST PUSH1 0x1 DUP3 ADD SWAP1 POP SWAP2 SWAP1 POP JUMP JUMPDEST PUSH2 0xF21 DUP2 PUSH2 0xB95 JUMP JUMPDEST DUP3 MSTORE POP POP JUMP JUMPDEST PUSH1 0x0 PUSH1 0x20 DUP3 ADD SWAP1 POP PUSH2 0xF3C PUSH1 0x0 DUP4 ADD DUP5 PUSH2 0xF18 JUMP JUMPDEST SWAP3 SWAP2 POP POP JUMP JUMPDEST PUSH1 0x0 DUP2 SWAP1 POP SWAP3 SWAP2 POP POP JUMP JUMPDEST POP JUMP JUMPDEST PUSH1 0x0 PUSH2 0xF5D PUSH1 0x0 DUP4 PUSH2 0xF42 JUMP JUMPDEST SWAP2 POP PUSH2 0xF68 DUP3 PUSH2 0xF4D JUMP JUMPDEST PUSH1 0x0 DUP3 ADD SWAP1 POP SWAP2 SWAP1 POP JUMP JUMPDEST PUSH1 0x0 PUSH2 0xF7E DUP3 PUSH2 0xF50 JUMP JUMPDEST SWAP2 POP DUP2 SWAP1 POP SWAP2 SWAP1 POP JUMP JUMPDEST PUSH32 0x5472616E73666572206661696C65640000000000000000000000000000000000 PUSH1 0x0 DUP3 ADD MSTORE POP JUMP JUMPDEST PUSH1 0x0 PUSH2 0xFBE PUSH1 0xF DUP4 PUSH2 0xA2F JUMP JUMPDEST SWAP2 POP PUSH2 0xFC9 DUP3 PUSH2 0xF88 JUMP JUMPDEST PUSH1 0x20 DUP3 ADD SWAP1 POP SWAP2 SWAP1 POP JUMP JUMPDEST PUSH1 0x0 PUSH1 0x20 DUP3 ADD SWAP1 POP DUP2 DUP2 SUB PUSH1 0x0 DUP4 ADD MSTORE PUSH2 0xFED DUP2 PUSH2 0xFB1 JUMP JUMPDEST SWAP1 POP SWAP2 SWAP1 POP JUMP JUMPDEST PUSH1 0x0 PUSH2 0xFFF DUP3 PUSH2 0x9C1 JUMP JUMPDEST SWAP2 POP PUSH2 0x100A DUP4 PUSH2 0x9C1 JUMP JUMPDEST SWAP3 POP DUP3 DUP3 ADD SWAP1 POP DUP1 DUP3 GT ISZERO PUSH2 0x1022 JUMPI PUSH2 0x1021 PUSH2 0xEA1 JUMP JUMPDEST JUMPDEST SWAP3 SWAP2 POP POP JUMP JUMPDEST PUSH1 0x0 DUP2 SWAP1 POP DUP2 PUSH1 0x0 MSTORE PUSH1 0x20 PUSH1 0x0 KECCAK256 SWAP1 POP SWAP2 SWAP1 POP JUMP JUMPDEST PUSH1 0x0 PUSH1 0x20 PUSH1 0x1F DUP4 ADD DIV SWAP1 POP SWAP2 SWAP1 POP JUMP JUMPDEST PUSH1 0x0 DUP3 DUP3 SHL SWAP1 POP SWAP3 SWAP2 POP POP JUMP JUMPDEST PUSH1 0x0 PUSH1 0x8 DUP4 MUL PUSH2 0x108A PUSH32 0xFFFFFFFFFFFFFFFFFFFFFFFFFFFFFFFFFFFFFFFFFFFFFFFFFFFFFFFFFFFFFFFF DUP3 PUSH2 0x104D JUMP JUMPDEST PUSH2 0x1094 DUP7 DUP4 PUSH2 0x104D JUMP JUMPDEST SWAP6 POP DUP1 NOT DUP5 AND SWAP4 POP DUP1 DUP7 AND DUP5 OR SWAP3 POP POP POP SWAP4 SWAP3 POP POP POP JUMP JUMPDEST PUSH1 0x0 DUP2 SWAP1 POP SWAP2 SWAP1 POP JUMP JUMPDEST PUSH1 0x0 PUSH2 0x10D1 PUSH2 0x10CC PUSH2 0x10C7 DUP5 PUSH2 0x9C1 JUMP JUMPDEST PUSH2 0x10AC JUMP JUMPDEST PUSH2 0x9C1 JUMP JUMPDEST SWAP1 POP SWAP2 SWAP1 POP JUMP JUMPDEST PUSH1 0x0 DUP2 SWAP1 POP SWAP2 SWAP1 POP JUMP JUMPDEST PUSH2 0x10EB DUP4 PUSH2 0x10B6 JUMP JUMPDEST PUSH2 0x10FF PUSH2 0x10F7 DUP3 PUSH2 0x10D8 JUMP JUMPDEST DUP5 DUP5 SLOAD PUSH2 0x105A JUMP JUMPDEST DUP3 SSTORE POP POP POP POP JUMP JUMPDEST PUSH1 0x0 SWAP1 JUMP JUMPDEST PUSH2 0x1114 PUSH2 0x1107 JUMP JUMPDEST PUSH2 0x111F DUP2 DUP5 DUP5 PUSH2 0x10E2 JUMP JUMPDEST POP POP POP JUMP JUMPDEST JUMPDEST DUP2 DUP2 LT ISZERO PUSH2 0x1143 JUMPI PUSH2 0x1138 PUSH1 0x0 DUP3 PUSH2 0x110C JUMP JUMPDEST PUSH1 0x1 DUP2 ADD SWAP1 POP PUSH2 0x1125 JUMP JUMPDEST POP POP JUMP JUMPDEST PUSH1 0x1F DUP3 GT ISZERO PUSH2 0x1188 JUMPI PUSH2 0x1159 DUP2 PUSH2 0x1028 JUMP JUMPDEST PUSH2 0x1162 DUP5 PUSH2 0x103D JUMP JUMPDEST DUP2 ADD PUSH1 0x20 DUP6 LT ISZERO PUSH2 0x1171 JUMPI DUP2 SWAP1 POP JUMPDEST PUSH2 0x1185 PUSH2 0x117D DUP6 PUSH2 0x103D JUMP JUMPDEST DUP4 ADD DUP3 PUSH2 0x1124 JUMP JUMPDEST POP POP JUMPDEST POP POP POP JUMP JUMPDEST PUSH1 0x0 DUP3 DUP3 SHR SWAP1 POP SWAP3 SWAP2 POP POP JUMP JUMPDEST PUSH1 0x0 PUSH2 0x11AB PUSH1 0x0 NOT DUP5 PUSH1 0x8 MUL PUSH2 0x118D JUMP JUMPDEST NOT DUP1 DUP4 AND SWAP2 POP POP SWAP3 SWAP2 POP POP JUMP JUMPDEST PUSH1 0x0 PUSH2 0x11C4 DUP4 DUP4 PUSH2 0x119A JUMP JUMPDEST SWAP2 POP DUP3 PUSH1 0x2 MUL DUP3 OR SWAP1 POP SWAP3 SWAP2 POP POP JUMP JUMPDEST PUSH2 0x11DD DUP3 PUSH2 0xA24 JUMP JUMPDEST PUSH8 0xFFFFFFFFFFFFFFFF DUP2 GT ISZERO PUSH2 0x11F6 JUMPI PUSH2 0x11F5 PUSH2 0xC38 JUMP JUMPDEST JUMPDEST PUSH2 0x1200 DUP3 SLOAD PUSH2 0xE70 JUMP JUMPDEST PUSH2 0x120B DUP3 DUP3 DUP6 PUSH2 0x1147 JUMP JUMPDEST PUSH1 0x0 PUSH1 0x20 SWAP1 POP PUSH1 0x1F DUP4 GT PUSH1 0x1 DUP2 EQ PUSH2 0x123E JUMPI PUSH1 0x0 DUP5 ISZERO PUSH2 0x122C JUMPI DUP3 DUP8 ADD MLOAD SWAP1 POP JUMPDEST PUSH2 0x1236 DUP6 DUP3 PUSH2 0x11B8 JUMP JUMPDEST DUP7 SSTORE POP PUSH2 0x129E JUMP JUMPDEST PUSH1 0x1F NOT DUP5 AND PUSH2 0x124C DUP7 PUSH2 0x1028 JUMP JUMPDEST PUSH1 0x0 JUMPDEST DUP3 DUP2 LT ISZERO PUSH2 0x1274 JUMPI DUP5 DUP10 ADD MLOAD DUP3 SSTORE PUSH1 0x1 DUP3 ADD SWAP2 POP PUSH1 0x20 DUP6 ADD SWAP5 POP PUSH1 0x20 DUP2 ADD SWAP1 POP PUSH2 0x124F JUMP JUMPDEST DUP7 DUP4 LT ISZERO PUSH2 0x1291 JUMPI DUP5 DUP10 ADD MLOAD PUSH2 0x128D PUSH1 0x1F DUP10 AND DUP3 PUSH2 0x119A JUMP JUMPDEST DUP4 SSTORE POP JUMPDEST PUSH1 0x1 PUSH1 0x2 DUP9 MUL ADD DUP9 SSTORE POP POP POP JUMPDEST POP POP POP POP POP POP JUMP JUMPDEST PUSH1 0x0 PUSH2 0x12C1 PUSH2 0x12BC PUSH2 0x12B7 DUP5 PUSH2 0xAB4 JUMP JUMPDEST PUSH2 0x10AC JUMP JUMPDEST PUSH2 0xAB4 JUMP JUMPDEST SWAP1 POP SWAP2 SWAP1 POP JUMP JUMPDEST PUSH1 0x0 PUSH2 0x12D3 DUP3 PUSH2 0x12A6 JUMP JUMPDEST SWAP1 POP SWAP2 SWAP1 POP JUMP JUMPDEST PUSH1 0x0 PUSH2 0x12E5 DUP3 PUSH2 0x12C8 JUMP JUMPDEST SWAP1 POP SWAP2 SWAP1 POP JUMP JUMPDEST PUSH2 0x12F5 DUP2 PUSH2 0x12DA JUMP JUMPDEST DUP3 MSTORE POP POP JUMP JUMPDEST PUSH1 0x0 PUSH1 0xA0 DUP3 ADD SWAP1 POP DUP2 DUP2 SUB PUSH1 0x0 DUP4 ADD MSTORE PUSH2 0x1315 DUP2 DUP9 PUSH2 0xA7B JUMP JUMPDEST SWAP1 POP PUSH2 0x1324 PUSH1 0x20 DUP4 ADD DUP8 PUSH2 0x12EC JUMP JUMPDEST PUSH2 0x1331 PUSH1 0x40 DUP4 ADD DUP7 PUSH2 0xAF5 JUMP JUMPDEST PUSH2 0x133E PUSH1 0x60 DUP4 ADD DUP6 PUSH2 0xAF5 JUMP JUMPDEST PUSH2 0x134B PUSH1 0x80 DUP4 ADD DUP5 PUSH2 0xAF5 JUMP JUMPDEST SWAP7 SWAP6 POP POP POP POP POP POP JUMP INVALID LOG2 PUSH5 0x6970667358 0x22 SLT KECCAK256 LOG2 PUSH2 0xFE35 DUP3 0xB2 SWAP6 DUP10 CREATE COINBASE PUSH8 0xF24CCDB07FA821AA MSIZE 0xA7 0xDE 0xC6 0xE SELFDESTRUCT SAR 0xC9 0xAD 0xEF 0xEE 0x25 0xE3 PUSH5 0x736F6C6343 STOP ADDMOD XOR STOP CALLER "
        },
        "methodIdentifiers": {
          "createProposal(string,address,uint256,uint256,uint256)": "8f380d2d",
          "executeProposal(uint256)": "0d61b519",
          "hasVoted(address,uint256)": "42545825",
          "proposalCount()": "da35c664",
          "proposals(uint256)": "013cf08b",
          "vote(uint256)": "0121b93f"
        }
      }
    }
  }
}